:020000040800F2
:1000000000500020AD1300084513000847130008F6
:10001000491300084B1300084D13000800000000AE
:100020000000000000000000000000004F13000866
:100030005113000800000000531300085513000876
:10004000F5130008F5130008F5130008F513000870
:10005000F5130008F5130008F5130008F513000860
:10006000F5130008F5130008F5130008F513000850
:10007000F5130008F5130008F5130008F513000840
:10008000F5130008F5130008F5130008F513000830
:10009000F5130008F5130008F5130008F513000820
:1000A000F5130008F5130008F5130008F513000810
:1000B000F5130008F5130008F5130008F513000800
:1000C000F5130008F5130008F5130008F5130008F0
:1000D000F5130008F5130008F5130008F5130008E0
:1000E000F5130008F5130008F513000800000000E0
:1000F0000000000000000000000000000000000000
:0C01000000000000000000005FF808F1A3
:10010C0010B5054C237833B9044B13B10448AFF345
:10011C0000800123237010BD70000020000000003F
:10012C007C1C000808B5034B1BB103490348AFF313
:10013C00008008BD00000000740000207C1C00083A
:10014C0010B504460E4B18784FF47A73B3FBF0F3EA
:10015C000C4A1068B0FBF3F000F094F868B90F2C5F
:10016C0001D901200AE0002221464FF0FF3000F0B7
:10017C0055F8034B5C60002000E0012010BD00BF6F
:10018C00000000200800002008B5074A136843F05F
:10019C0010031360032000F02FF80020FFF7D0FFAE
:1001AC0001F04CF8002008BD00200240034A116801
:1001BC00034B1B780B441360704700BF9800002062
:1001CC0000000020014B1868704700BF9800002009
:1001DC0038B50446FFF7F6FF0546B4F1FF3F02D0F1
:1001EC00044B1B781C44FFF7EDFF401BA042FAD3D5
:1001FC0038BD00BF00000020074AD36823F4E06339
:10020C001B041B0C000200F4E060184340F0BF60BC
:10021C0040F40030D060704700ED00E030B4174B74
:10022C00DB68C3F30223C3F10704042C28BF0424A6
:10023C001D1D062D18D9033B4FF0FF3505FA04F4AC
:10024C0021EA0401994005FA03F322EA0303194356
:10025C0000280BDB0901C9B200F1604000F56140D8
:10026C0080F8001330BC70470023E5E700F00F0066
:10027C000901C9B2024B1954F4E700BF00ED00E0CC
:10028C0014ED00E00138B0F1807F0AD2064B5860C3
:10029C00064AF02182F823100020986007221A6089
:1002AC0070470120704700BF10E000E000ED00E057
:1002BC00042805D0054A136823F004031360704723
:1002CC00024A136843F004031360704710E000E027
:1002DC00704708B5FFF7FCFF08BD0000F0B482B012
:1002EC0000263546A1E0002C59D0012C00D1CE6857
:1002FC00FF2B68D88446FF2B68D8AC00DCF80020B4
:10030C000F27A74022EA070206FA04F42243CCF88E
:10031C0000204A6812F0805F00F086805E4A946983
:10032C0044F001049461926902F001020192019A75
:10033C00AC08A71C594A52F8272005F00307BF0048
:10034C004FF00F0C0CFA07FC22EA0C0C544A9042AA
:10035C0042D002F5806290427FD002F580629042DA
:10036C007DD002F58062904234D0042235E04D4FAE
:10037C00BC4214D00BD94C4FBC4210D007F580377F
:10038C00BC420CD0A7F58017BC42B1D107E0A7F551
:10039C008017BC4203D007F58037BC42A8D18C68CB
:1003AC007CB1012C08D042610826A1E7CE68083642
:1003BC009EE7CE680C369BE70261082698E700267C
:1003CC0096E7042694E700F1040C94E7A5F10804E1
:1003DC00A40093E7032200E00022BA4042EA0C0298
:1003EC0002342E4F47F824204A6812F4803F38D04C
:1003FC002E4C22681A4322604A6812F4003F36D011
:10040C002A4C62681A4362604A6812F4801F34D026
:10041C00264CA2681A43A2604A6812F4001F32D01C
:10042C00224CE2681343E36001350F2D31D80122D1
:10043C00AA400B6813409A42F6D14C68122CB8D0E3
:10044C0095D8022CB2D07FF64EAF032CB7D0112C1E
:10045C007FF44EAFCE6804364AE70122BDE7022294
:10046C00BBE7124C226822EA03022260C4E70F4C5D
:10047C00626822EA03026260C6E70C4CA26822EAB8
:10048C000302A260C8E7094CE26822EA0303E360B6
:10049C00CAE702B0F0BC70470010024000000140F7
:1004AC000008014000002110000031100004014040
:1004BC008368194201D1002070470120704712B99E
:1004CC0009040161704701617047000082B0084B5C
:1004DC001B68084AA2FB03235B0A00FB03F0019094
:1004EC0000BF019B5A1E0192002BF9D102B070473C
:1004FC0008000020D34D621070B582B0044603682A
:10050C0013F0010F2CD0AB4B5B6803F00C03042BE6
:10051C001DD0A84B5B6803F00C03082B12D063684A
:10052C00B3F5803F41D0002B55D103F1804303F547
:10053C0004331A6822F480321A601A6822F480227A
:10054C001A6037E09B4B5B6813F4803FE7D0994B04
:10055C001B6813F4003F03D06368002B00F0AE81DE
:10056C00236813F0020F76D0924B5B6813F00C0FDC
:10057C005FD0904B5B6803F00C03082B54D02369BD
:10058C00002B00F08A808C4B01221A60FFF71AFEB8
:10059C000546884B1B6813F0020F75D1FFF712FE4E
:1005AC00401B0228F5D903208BE1824A136843F4DF
:1005BC0080331360636843B3FFF704FE05467D4B3D
:1005CC001B6813F4003FCBD1FFF7FCFD401B6428E4
:1005DC00F5D9032075E1B3F5A02F09D0754B1A6836
:1005EC0022F480321A601A6822F480221A60E1E741
:1005FC0003F18043A3F53C331A6842F480221A605D
:10060C001A6842F480321A60D4E7FFF7DBFD054626
:10061C00684B1B6813F4003FA2D0FFF7D3FD401BBF
:10062C006428F5D903204CE1624B5B6813F4803FDE
:10063C00A5D1604B1B6813F0020F04D02369012B6A
:10064C0001D001203DE15B4A136823F0F803616996
:10065C0043EAC1031360236813F0080F32D0A36977
:10066C00002B5BD0554B01221A60FFF7ABFD054602
:10067C00504B5B6A13F0020F21D1FFF7A3FD401B17
:10068C000228F5D903201CE14A4A136823F0F80329
:10069C00616943EAC1031360DDE7474B00221A602E
:1006AC00FFF790FD0546434B1B6813F0020FD2D0A9
:1006BC00FFF788FD401B0228F5D9032001E101203A
:1006CC00FFF704FF236813F0040F00F09780394BF9
:1006DC00DB6913F0805F33D1364BDA6942F080521C
:1006EC00DA61DB6903F080530193019B0125344BE4
:1006FC001B6813F4807F25D0E368012B36D0002BC8
:10070C004CD103F1804303F504331A6A22F0010241
:10071C001A621A6A22F004021A622CE0274B002299
:10072C001A60FFF74FFD0546224B5B6A13F0020F70
:10073C00C8D0FFF747FD401B0228F5D90320C0E0C5
:10074C000025D4E71E4A136843F480731360FFF747
:10075C0039FD06461A4B1B6813F4807FCCD1FFF78A
:10076C0031FD801B6428F5D90320AAE0114A136AD5
:10077C0043F001031362E36873B3FFF723FD0646EE
:10078C000C4B1B6A13F0020F37D1FFF71BFD801BBC
:10079C0041F288339842F3D9032092E0052B11D013
:1007AC00044B1A6A22F001021A621A6A22F004023D
:1007BC001A62E0E70010024000004242800442420C
:1007CC0000700040414B1A6A42F004021A621A6A25
:1007DC0042F001021A62CEE7FFF7F4FC06463B4BEF
:1007EC001B6A13F0020F08D0FFF7ECFC801B41F2E0
:1007FC0088339842F3D9032063E0E5B9E369002B11
:10080C005ED0324A526802F00C02082A5BD0022BEE
:10081C0017D02F4B00221A60FFF7D4FC04462B4B49
:10082C001B6813F0007F47D0FFF7CCFC001B02289D
:10083C00F5D9032045E0254AD36923F08053D361D1
:10084C00DCE7234B00221A60FFF7BCFC05461F4B6C
:10085C001B6813F0007F06D0FFF7B4FC401B022886
:10086C00F5D903202DE0236AB3F5803F1AD0174940
:10087C004B6823F47413226A606A024313434B607F
:10088C00134B01221A60FFF79DFC04460F4B1B68AB
:10089C0013F0007F0ED1FFF795FC001B0228F5D951
:1008AC0003200EE0094A536823F40033A1680B437C
:1008BC005360DCE7002004E0002002E0012000E0AF
:1008CC00002002B070BD0120FBE700BF0010024009
:1008DC006000424210B487B0164C94E80F000DF142
:1008EC00180C0CE90F00238AADF80430124B5B682E
:1008FC0003F00C02082A1AD1C3F38342624412F8A3
:10090C00102C13F4803F05D10C4800FB02F007B00B
:10091C0010BC7047084B5B68C3F34043634413F847
:10092C00143C074800FB02F0B0FBF3F0EFE704487F
:10093C00EDE700BF941C00080010024000093D00C8
:10094C0000127A00594B1B6803F007038B420CD240
:10095C00564A136823F007030B431360136803F024
:10096C0007038B4201D00120704770B5036813F068
:10097C00020F06D04E4A536823F0F00384682343D9
:10098C0053600C460546036813F0010F52D04368C0
:10099C00012B23D0022B28D0454A126812F0020FEB
:1009AC0000F0828042494A6822F0030213434B60F4
:1009BC00FFF708FC06466B68012B1DD0022B2AD0D2
:1009CC003B4B5B6813F00C0F34D0FFF7FBFB801B29
:1009DC0041F288339842F3D9032064E0344A126818
:1009EC0012F4003FDED101205DE0314A126812F0B2
:1009FC00007FD7D1012056E02D4B5B6803F00C0330
:100A0C00042B17D0FFF7DEFB801B41F28833984292
:100A1C00F2D9032047E0264B5B6803F00C03082B4C
:100A2C0008D0FFF7CFFB801B41F288339842F2D9F4
:100A3C00032038E01D4B1B6803F00703A3420CD9BD
:100A4C001A4A136823F0070323431360136803F057
:100A5C000703A34201D0012025E02B6813F0040FFB
:100A6C0006D0134A536823F4E063E9680B435360E0
:100A7C002B6813F0080F07D00D4A536823F460530A
:100A8C00296943EAC1035360FFF724FF084B5B68F5
:100A9C00C3F30313074AD35CD840074B18600020FC
:100AAC00FFF74EFB002070BD0120FCE70020024048
:100ABC0000100240A81C000808000020014B186818
:100ACC00704700BF0800002008B5FFF7F7FF044B84
:100ADC005B68C3F30223034AD35CD84008BD00BF54
:100AEC0000100240B81C000808B5FFF7E7FF044BE4
:100AFC005B68C3F3C223034AD35CD84008BD00BF74
:100B0C0000100240B81C00082DE9F84305460268A5
:100B1C00136923F44053C1680B4313618368026962
:100B2C001343426913430168CA6822F4B05222F09D
:100B3C000C021343CB600268536923F44073816940
:100B4C000B4353610268594B9A4257D0FFF7BCFFD5
:100B5C0000EB800000EB80006C68A400B0FBF4F4A8
:100B6C00534FA7FB043464092601FFF7ADFF00EBDC
:100B7C00800000EB80006C68A400B0FBF4F9FFF778
:100B8C00A3FF00EB800000EB80006C68A400B0FBBE
:100B9C00F4F4A7FB043464094FF0640808FB1494C4
:100BAC0024013234A7FB0434640904F0F004344407
:100BBC00FFF78AFF00EB800000EB80006E68B60048
:100BCC00B0FBF6F6FFF780FF00EB800000EB800037
:100BDC006B689B00B0FBF3F0A7FB0030400908FBEF
:100BEC0010684FEA081808F13208A7FB0837C7F35A
:100BFC0043172B6827449F60BDE8F883FFF774FF09
:100C0C0000EB800000EB80006C68A400B0FBF4F4F7
:100C1C00274FA7FB043464092601FFF765FF00EB9F
:100C2C00800000EB80006C68A400B0FBF4F9FFF7C7
:100C3C005BFF00EB800000EB80006C68A400B0FB55
:100C4C00F4F4A7FB043464094FF0640808FB149413
:100C5C0024013234A7FB0434640904F0F004344456
:100C6C00FFF742FF00EB800000EB80006E68B600DF
:100C7C00B0FBF6F6FFF738FF00EB800000EB8000CE
:100C8C006B689B00B0FBF3F0A7FB0030400908FB3E
:100C9C0010684FEA081808F13208A7FB0837C7F3A9
:100CAC0043172B6827449F60A6E700BF003801401C
:100CBC001F85EB512DE9F04105460F461646984627
:100CCC00069C2B681B6837EA03030CBF0123002327
:100CDC00B3421DD1B4F1FF3FF3D02CB1FFF772FA40
:100CEC00A0EB0800A042ECD92A68D36823F4D07397
:100CFC00D3602A68536923F001035361202385F8DC
:100D0C00393085F83A30002385F83830032000E07C
:100D1C000020BDE8F08158B310B5044690F8393086
:100D2C000BB3242384F839302268D36823F400539E
:100D3C00D3602046FFF7E8FE2268136923F4904342
:100D4C0013612268536923F02A0353612268D36824
:100D5C0043F40053D3600020E063202384F839303F
:100D6C0084F83A3010BD80F8383000F0B7FAD8E784
:100D7C00012070472DE9F04182B01E4690F83930C1
:100D8C00DBB2202B55D104460D469046002955D098
:100D9C00002A55D090F83830012B53D0012380F81D
:100DAC0038300023C363212380F83930FFF70AFA67
:100DBC000746A4F82480A4F8268010E000963B4651
:100DCC00002280212046FFF775FF00283CD12B889C
:100DDC002268C3F3080353602369C3B90235E38C5B
:100DEC009BB2B3B1E38C013B9BB2E384A368B3F534
:100DFC00805FE3D000963B46002280212046FFF71F
:100E0C0059FF18BB2A7823685A600135E7E701358A
:100E1C00E5E700963B46002240212046FFF74AFFBB
:100E2C000346A8B9202284F83920002284F83820FF
:100E3C0000E00223184602B0BDE8F0810123F9E777
:100E4C000123F7E70223F5E70323F3E70323F1E795
:100E5C000323EFE7F0B587B01B4B9A6942F0080209
:100E6C009A619A6902F008020092009A9A6942F01B
:100E7C0010029A619B6903F010030193019B0823F4
:100E8C0002930126039600250495022405940DEB8C
:100E9C0003010E48FFF722FA4FF480530293039696
:100EAC00049505940A4F02A93846FFF717FA4FF438
:100EBC000063029303960495059402A93846FFF744
:100ECC000DFA07B0F0BD00BF00100240000C01404D
:100EDC000010014010B5044610F0010F17D001228C
:100EEC0008211548FFF7EBFA14F0020F15D0012278
:100EFC004FF480511148FFF7E2FA14F0040F13D1AC
:100F0C0000224FF400610D48FFF7D9FA10BD002202
:100F1C0008210948FFF7D3FAE6E700224FF4805185
:100F2C000648FFF7CCFAE8E701224FF400610348CA
:100F3C00FFF7C5FAEAE700BF000C014000100140C2
:100F4C00F0B587B0234B9A6942F010029A619A6906
:100F5C0002F010020092009A9A6942F004029A611F
:100F6C009B6903F004030193019B1B4D00224FF47A
:100F7C0080412846FFF7A3FA184E00224FF48061F7
:100F8C003046FFF79CFA4FF48043029301240394FC
:100F9C0004940227059702A92846FFF79FF94FF4FE
:100FAC008063029303940494059702A93046FFF7DB
:100FBC0095F94FF40043029300260396049402A97A
:100FCC002846FFF78BF9FFF745FF3046FFF782FF06
:100FDC0007B0F0BD001002400008014000100140B5
:100FEC0070B500260B2500E0013D002D20DB124CD6
:100FFC0000224FF480412046FFF761FA00BF00BF8A
:10100C0000BF00BF00BF00BF01224FF4804120464B
:10101C00FFF755FA00BF00BF4FF400412046FFF721
:10102C0047FA0028E0D00120A8400643B6B2DBE71F
:10103C00701E80B270BD00BF0008014038B51F4C57
:10104C0001224FF480612046FFF739FA00224FF459
:10105C0080612046FFF733FA01224FF48041184893
:10106C00FFF72DFA0024012C25D8154D00224FF442
:10107C0080412846FFF723FA01224FF4804128468D
:10108C00FFF71DFA4FF400412846FFF711FA10B193
:10109C000134E4B2E7E7FFF7A3FF044600224FF464
:1010AC0080412846FFF70BFA01224FF48061034878
:1010BC00FFF705FA00E00024204638BD001001407F
:1010CC000008014008B5FFF705FFFFF7B7FF08BDA3
:1010DC0084B0134B9A6942F020029A619A6902F02B
:1010EC0020020092009A9A6942F004029A619A696D
:1010FC0002F004020192019A9A6942F010029A617C
:10110C009A6902F010020292029A9A6942F008025D
:10111C009A619B6903F008030393039B04B0704727
:10112C0000100240FEE7000008B50B480B4B0360B3
:10113C004FF4E133436000238360C36003610C22EE
:10114C0042618361C361FFF7E6FD00B908BD9221DE
:10115C000348FFF7E7FF00BFA00000200038014064
:10116C00C01C000800B591B0012206924FF48033E8
:10117C000793002108910A9202220D920E934FF4CC
:10118C00E0130F9306A8FFF7B7F908BB0F230193E1
:10119C0002210291002303934FF480620492059381
:1011AC0001A8FFF7CFFBB8B9FFF788FC0C4BA3FBEA
:1011BC0000308009FFF766F80420FFF779F8002269
:1011CC0011464FF0FF30FFF729F811B05DF804FB22
:1011DC0067210448FFF7A6FF75210248FFF7A2FF1D
:1011EC00D34D6210C01C000810B5FEF7CDFFFFF701
:1011FC00B9FFFFF76DFFFFF797FFFFF7A1FE022086
:10120C00FFF760FF094B1880094CC3B2020A094969
:10121C00204600F00FF964230A2221460648FFF706
:10122C00A9FD4FF47A70FEF7D3FFE8E79C0000208D
:10123C00E0000020D01C0008A000002000B583B006
:10124C00244B9A6942F001029A619A6902F00102F8
:10125C000092009ADA6942F08052DA61DB6903F09D
:10126C0080530193019B0320FEF7C6FF0022114619
:10127C006FF00B00FEF7D2FF002211466FF00A0050
:10128C00FEF7CCFF002211466FF00900FEF7C6FFF7
:10129C00002211466FF00400FEF7C0FF0022114639
:1012AC006FF00300FEF7BAFF002211466FF0010049
:1012BC00FEF7B4FF002211464FF0FF30FEF7AEFFF1
:1012CC00054A536823F0E06343F08063536003B036
:1012DC005DF804FB00100240000001400268144B52
:1012EC009A4200D0704710B586B003F558439A69FE
:1012FC0042F480429A619B6903F480430193019B01
:10130C004FF4007302930223039303230593094CB8
:10131C0002A92046FEF7E2FF4FF4806302930023FC
:10132C000393049302A92046FEF7D8FF06B010BD24
:10133C0000380140000801407047FEE7FEE7FEE779
:10134C00FEE770477047704708B5FEF72FFFFEF7B2
:10135C00C0FF08BD0F4B1A6842F001021A605968B1
:10136C000D4A0A405A601A6822F0847222F48032C4
:10137C001A601A6822F480221A605A6822F4FE025B
:10138C005A604FF41F029A60044B4FF000629A604F
:10139C00704700BF001002400000FFF800ED00E0B5
:1013AC00002103E00B4B5B58435004310A480B4BB4
:1013BC0042189A42F6D30A4A02E0002342F8043B50
:1013CC00084B9A42F9D3FFF7C5FF00F00FF8FFF76F
:1013DC000BFF7047181D0008000000207000002053
:1013EC0070000020AC010020FEE7000070B5002565
:1013FC000C4E0D4CA41BA410A54209D100F038FCD6
:10140C0000250A4E0A4CA41BA410A54205D170BDA0
:10141C0056F8253098470135EEE756F825309847B1
:10142C000135F2E7101D0008101D0008101D000802
:10143C00141D00080EB46FF0004100B59CB01DAB3C
:10144C0002900690079104910848094953F8042B1F
:10145C000591006802A9019300F066F80022029B36
:10146C001A701CB05DF804EB03B070470C00002040
:10147C000802FFFF2DE9F0478E6882469E420C461B
:10148C009046994637D88A8912F4906F31D002234E
:10149C00256809696F1A656905EB450595FBF3F538
:1014AC0009F101033B449D4238BF1D46530530D51D
:1014BC00294600F035FB064650B90C234FF0FF309F
:1014CC00CAF80030A38943F04003A381BDE8F0873C
:1014DC003A46216900F0B4FAA38923F4906343F0EF
:1014EC008003A38126613E4426604E466561ED1B58
:1014FC00A5604E4500D94E4632464146206800F064
:10150C00AAFAA36800209B1BA36023681E442660D4
:10151C00DCE72A4600F05EFB06460028E2D1216992
:10152C00504600F0B1FAC8E72DE9F04F9DB0039397
:10153C008B8980461D060C4616460FD50B696BB978
:10154C00402100F0EDFA2060206128B90C23C8F886
:10155C0000304FF0FF30C7E0402363610023099354
:10156C0020238DF8293030234FF0010B8DF82A30D1
:10157C0037463D4615F8013B0BB1252B3ED1B7EB59
:10158C00060A0BD05346324621464046FFF772FFFF
:10159C00013000F0A480099B534409933B78002B45
:1015AC0000F09D8000234FF0FF32CDE9052304931A
:1015BC0007938DF853301A932F46052217F8011B09
:1015CC004F4800F02FFA049BD0B9D90644BF202213
:1015DC008DF853201A0744BF2B228DF853202A78FC
:1015EC002A2A15D02F4600200A25079A394611F8C9
:1015FC00013B303B092B4DD9B8B10FE02F46B8E772
:10160C003F4A3D46801A0BFA00F018430490D3E78A
:10161C00039A111D12680391002A01DB079204E062
:10162C00524243F00203079204933B782E2B0CD1C9
:10163C007B782A2B33D1039B02371A1D1B6803922C
:10164C00002BB8BF4FF0FF3305932E4D0322397892
:10165C00284600F0E7F938B14023401B03FA00F0AC
:10166C00049B0137034304933978062226487E1CD9
:10167C008DF8281000F0D6F9002838D0234B13BB76
:10168C00039B073323F0070308330393099B4B4455
:10169C0009936DE705FB023201200F46A6E70023F4
:1016AC000A25194601370593384610F8012B303AB4
:1016BC00092A03D9002BC8D00591C6E705FB0121E7
:1016CC0001230746F0E703AB00932246104B04A915
:1016DC004046AFF30080B0F1FF3F8146D6D1A389DD
:1016EC005B063FF536AF09981DB0BDE8F08F03AB34
:1016FC0000932246064B04A9404600F081F8EAE725
:10170C00DC1C0008E21C0008E61C000800000000BD
:10171C00811400082DE9F04791461F468A680B6931
:10172C0006469342B8BF1346C9F8003091F84320DF
:10173C000C46DDF8208012B10133C9F80030236863
:10174C00990642BFD9F800300233C9F80030256839
:10175C0015F0060507D104F1190AE368D9F8002041
:10176C009B1AAB4229DC94F843302268003318BF33
:10177C00012392062ED404F1430239463046C04769
:10178C00013021D02368E56803F00603042B18BF51
:10179C000025D9F800204FF0000908BFAD1AA36846
:1017AC00226908BF25EAE5759342C4BF9B1AED1860
:1017BC001A344D451AD1002008E00123524639460F
:1017CC003046C047013003D14FF0FF30BDE8F08701
:1017DC000135C2E73020E11881F843005A1C94F817
:1017EC0045102244023382F84310C4E701232246F9
:1017FC0039463046C0470130E6D009F10109D8E737
:10180C002DE9F04301F1430C0C46097E85B06E299D
:10181C001746064698460C9A00F0B38022D86329E6
:10182C0036D00AD8002900F0B980582900F08380FE
:10183C0004F1420584F8421032E0642901D0692990
:10184C00F6D120681368050603F104012AD51B683C
:10185C001160002B03DA2D225B4284F843206F4881
:10186C000A2239E0732900F09D8008D86F2920D016
:10187C007029DDD1236843F02003236003E0752930
:10188C0017D07829D4D17823654884F8453055E0B1
:10189C00136804F14205191D1B68116084F842306D
:1018AC0001238CE01B6810F0400F116018BF1BB2B5
:1018BC00CFE713682568181D1060280601D51B6832
:1018CC0002E06806FBD51B886F2914BF0A22082288
:1018DC005248002184F843106568002DA560C0F2C1
:1018EC009580216821F004012160002B3DD1002D51
:1018FC0040F08E806546082A0BD12368DB0708D59B
:10190C00236962689A42DEBF302305F8013C05F179
:10191C00FF35ACEB05032361CDF800803B4603AAF1
:10192C0021463046FFF7F6FE01304DD14FF0FF3027
:10193C0005B0BDE8F083394884F845101368216878
:10194C001D1D1B6815600A060BD5CA0744BF41F064
:10195C00200121601BB9226822F020022260102293
:10196C00B7E74D0648BF9BB2EFE76546B3FBF2F114
:10197C0002FB1133C35C05F8013D0B460029F5D180
:10198C00B9E713682568181D6169106028061B6883
:10199C0001D5196002E06A06FBD519800023654663
:1019AC002361B9E71368191D11601D686268002175
:1019BC00284600F037F808B1401B6060636823616B
:1019CC00002384F84330A7E723692A46394630467A
:1019DC00C0470130AAD023689B0713D4E068039B4F
:1019EC009842B8BF1846A3E701234A463946304609
:1019FC00C04701309AD00135E368039A9B1AAB4279
:101A0C00F2DCEBE7002504F11909F5E7002BACD16A
:101A1C00037804F1420584F842306CE7ED1C0008B1
:101A2C00FE1C000810B5C9B202449042034601D115
:101A3C00002303E01C7801308C42F6D1184610BD0F
:101A4C0010B5431E0A44914200D110BD11F8014B50
:101A5C0003F8014FF7E7884210B501EB020307D8F2
:101A6C00421E99420AD011F8014B02F8014FF8E7D7
:101A7C008342F5D98118D21AD34200D110BD13F884
:101A8C00014D01F8014DF7E738B50546002943D063
:101A9C0051F8043C0C1F002BB8BFE41800F0D0F830
:101AAC001E4A1368104633B9636014602846BDE8BB
:101ABC00384000F0C6B8A3420BD921686218934293
:101ACC0001BF1A685B685218226063600460EDE71E
:101ADC0013465A680AB1A242FAD919685818A0429A
:101AEC000BD120680144581882421960DED110686D
:101AFC005268014419605A60D8E702D90C232B6054
:101B0C00D4E7206821188A4201BF1168526809186D
:101B1C00216062605C60C9E738BD00BF8C000020AA
:101B2C0070B5CD1C25F0030508350C2D38BF0C25E0
:101B3C00002D064601DBA94203D90C23336000209B
:101B4C0070BD00F07DF8214A1468214691B9204CF3
:101B5C0023681BB9304600F063F8206029463046F4
:101B6C0000F05EF8431C24D10C233046336000F0A7
:101B7C0068F8E4E70B685B1B18D40B2B0FD90B60D0
:101B8C00CC18CD50304600F05CF804F10B00231D4E
:101B9C0020F00700C31AD3D05A42E250D0E74B686A
:101BAC008C4216BF636013600C46EBE70C46496829
:101BBC00CCE7C41C24F00304A04205D0211A304603
:101BCC0000F02EF80130CFD02560DBE78C00002030
:101BDC0090000020F8B5074614460E4621B9BDE822
:101BEC00F8401146FFF79CBF22B9FFF74DFF254681
:101BFC002846F8BD00F026F8A0420FD22146384600
:101C0C00FFF78EFF05460028F2D031462246FFF73B
:101C1C0017FF31463846FFF737FFE9E73546E7E768
:101C2C0038B50023054C05460846236000F012F831
:101C3C00431C02D1236803B12B6038BDA8010020DE
:101C4C007047704751F8043C181F002BBCBF0B5851
:101C5C00C0187047044A05491368002B08BF0B468F
:101C6C00184410601846704794000020B001002002
:101C7C00F8B500BFF8BC08BC9E467047F8B500BF6D
:081C8C00F8BC08BC9E4670473D
:101C940002030405060708090A0B0C0D0E0F1010A9
:101CA4000102000000000000000000000102030423
:101CB4000607080900000000010203042E2E2F531A
:101CC40072632F6D61696E2E6300000074653A20A3
:101CD40025782C25780D0A00232D302B2000686CE4
:101CE4004C0065666745464700303132333435363B
:101CF4003738394142434445460030313233343574
:0C1D0400363738396162636465660000A0
:041D10003101000895
:041D14000D010008B5
:101D1800010000001000000000A24A04100000208A
:101D280000000000000000000000000000000000AB
:101D3800000000000000000000000000000000009B
:101D4800000000000000000000000000000000008B
:101D5800000000000000000000000000000000007B
:101D6800000000000000000000000000000000006B
:101D7800000000000000000000000000000000005B
:04000005080013AD2F
:00000001FF
